:020000040800F2
:10000000304701203D020008A5250008D91C000842
:10001000A1250008E10B0008852800080000000069
:100020000000000000000000000000002126000881
:10003000E50B000800000000B12500084526000877
:10004000570200085702000857020008570200082C
:10005000570200085702000857020008570200081C
:10006000570200085702000857020008570200080C
:1000700057020008570200085702000857020008FC
:1000800057020008570200085702000857020008EC
:1000900057020008570200085702000857020008DC
:1000A00057020008570200085702000857020008CC
:1000B00057020008570200085702000857020008BC
:1000C00057020008570200085702000857020008AC
:1000D000570200085702000857020008570200089C
:1000E000570200085702000857020008570200088C
:1000F000570200085702000857020008570200087C
:10010000570200085702000857020008570200086B
:10011000570200085702000857020008570200085B
:10012000570200085702000857020008570200084B
:10013000570200085702000857020008570200083B
:10014000570200085702000857020008570200082B
:100150005702000857020008570200080928000843
:10016000570200085702000857020008570200080B
:10017000570200085702000857020008000000005C
:10018000570200085702000800F002F800F047F894
:100190000AA090E8000C82448344AAF10107DA45E2
:1001A00001D100F03CF8AFF2090EBAE80F0013F0ED
:1001B000010F18BFFB1A43F001031847F44C00006D
:1001C000144D0000103A24BF78C878C1FAD85207FD
:1001D00024BF30C830C144BF04680C6070470000C1
:1001E0000023002400250026103A28BF78C1FBD840
:1001F000520728BF30C148BF0B607047642900F028
:100200003381782900F06C81732900F04B83002042
:1002100070471FB504F0E5FC1FBD10B510BD00F020
:1002200091FB1146FFF7F5FF02F05CFB00F0AFFB1E
:1002300003B4FFF7F2FF03BC02F03CFB0948804720
:1002400009480047FEE7FEE7FEE7FEE7FEE7FEE7B8
:10025000FEE7FEE7FEE7FEE704480549054A064BD0
:10026000704700000527000889010008302F012091
:10027000304701203037012030370120704753EAE2
:10028000020C00F069802DE9F04B4FF00006002BC6
:100290001FBFB3FA83F503FA05F424FA05F65E40AE
:1002A00012BF1643B2FA82F502FA05F4C5F1200531
:1002B0001EBF22FA05FC44EA0C04203556EA044C21
:1002C0004FEA144418BF641C4FF000084FF00009B7
:1002D000904271EB030C39D3002919BFB1FA81F7B1
:1002E00001FA07F6B0FA80F700FA07F6C7F120071F
:1002F0001EBF20FA07FC46EA0C062037B6FBF4FCCA
:10030000A7EB0507103F07F01F0BCBF120062CFAD7
:1003100006F60CFA0BFB44BFB3460026202FA4BF01
:100320005E464FF0000B5BEA060C08BF4FF0010B76
:1003300019EB0B0948EB0608ABFB027C06FB02CC71
:100340000BFB03CCC01B71EB0C01C1E70B46024653
:1003500041464846BDE8F08B13B5084318BF4FF03F
:10036000FF300146AFF30080BDE81C40704700003D
:100370000FB4044910B503AA029800F097FA10BC14
:100380005DF814FB940100200FB41CB50C0007AA03
:10039000009007D04142A14202D32044401E01E018
:1003A0004FF0FF30074B7B4469460190069800F000
:1003B0004CFA0021002C01D0009A11701CBC5DF891
:1003C00014FB0000C704000070B50446856900688E
:1003D000C10601D5302600E02026C00707D070BD39
:1003E000D4E9012130469047206A401C20626D1EEE
:1003F000F6D570BD70B5044685690078C00707D191
:1004000070BDD4E9012120209047206A401C206261
:100410006D1EF6D570BD70B50C460546012A05D097
:100420002878800600D5EA69002302E0012305E070
:100430005B1C934202D2E05C0028F9D1A869E6185F
:10044000C01AA861286A184428622846FFF7BCFF32
:1004500004E0D5E9012114F8010B9047B442F8D328
:100460002846FFF7C7FF70BD2DE9F041064600247E
:1004700010687529314616A510D0AFF3008000280A
:1004800002DA404213A507E031688A0701D512A5B8
:1004900002E0490704D511A5012401E0AFF3008073
:1004A00000210A2206F1240709E0B0FBF2FCB0FBB0
:1004B000F2F302FB1C00303078541846491C002827
:1004C000F3D123462A463046BDE8F04100F05EB93C
:1004D000000000002D0000002B00000020000000A4
:1004E00070B504460D4621461068AFF300802188A0
:1004F000090502D50F4A7A4402E00E4A7A440E32C8
:10050000002104F1240305E000F00F060009965DC8
:100510005E54491C0028F7D120780023000704D539
:10052000702D02D009B1022311322046BDE870407F
:1005300000F02CB9024700002DE9F05F894604461F
:100540004FF0000ADFF824B1FB44C0F820A0204699
:10055000E168884700287DD0252806D0D4E901210C
:100560009047206A401C2062F1E700255F46204644
:10057000E16888472028064607DB312E05D2B819E6
:1005800010F8200C08B10543F1E7A80701D525F0C4
:100590000405C4F81CA00027C4F818A02A2E09D00E
:1005A000304604F017FB38B304EB8708303EC8F838
:1005B000186019E059F8041B204604EB870291618A
:1005C000E1688847012F064618D1E069002820DA43
:1005D00025F020051DE0D8F8180000EB800006EBA0
:1005E00040003038C8F818002046E16888470646C1
:1005F00004F0F0FA0028EED1012F0AD02E2E08D1F7
:100600002046E16888477F1C0646022F45F02005FA
:10061000C4DBA069002803DA404245F00105A0616F
:10062000E80701D025F01005A6B1A6F14100192870
:1006300002D8203645F400654A46314620462560FA
:100640004D46FFF7DBFD60B1012807D0ED1D25F019
:10065000070000E007E000F1080978E705F1040968
:1006600075E730467AE7206ABDE8F09FD84600007B
:1006700010B5044603E002F01FF9401C09D014F83D
:10068000010B05490028F6D1BDE810400A2002F010
:1006900013B94FF0FF3010BD94010020032A40F23F
:1006A000308010F0030C00F0158011F8013BBCF114
:1006B000020F624498BF11F801CB00F8013B38BF2C
:1006C00011F8013BA2F1040298BF00F801CB38BF3A
:1006D00000F8013B11F0030300F0FA80083AC0F083
:1006E000088051F8043B083A51F804CBA0E8081000
:1006F000F5E7121D5CBF51F8043B40F8043BAFF333
:100700000080D20724BF11F8013B11F801CB48BF8C
:1007100011F8012B24BF00F8013B00F801CB48BFC2
:1007200000F8012B704702F0FF0343EA032242EA7C
:10073000024200F002B84FF0000200B513469446A2
:100740009646203922BFA0E80C50A0E80C50B1F129
:100750002001BFF4F7AF090728BFA0E80C5048BF3D
:100760000CC05DF804EB890028BF40F8042B08BFDB
:10077000704748BF20F8022B11F0804F18BF00F8D7
:10078000012B704770477047704770472DE9F0475D
:100790000D4699469246044600F1240801688806F1
:1007A00004D5E06921F01001216000E00120A84299
:1007B00001DD471B00E00027A1697A1902EB09005F
:1007C000081AA0612078C00602D42046FFF7FCFD7D
:1007D000002608E0D4E901211AF806009047206AB3
:1007E000401C761C20624E45F4DB2078C0060AD5FA
:1007F0002046FFF7E9FD06E0D4E9012130209047CB
:10080000206A401C2062381EA7F10107F4DC07E0D3
:10081000D4E9012118F805009047206A401C2062A5
:10082000281EA5F10105F3DC2046FFF7E3FD207843
:10083000000602D50220BDE8F0870120FBE700009A
:1008400001694A1C02610878704700B58FB0CDE994
:1008500001310021059105497944CDE90310114684
:100860006846FFF769FE0FB000BD0000E5FFFFFF1F
:10087000D1E900239A4202D2531C0B6010707047DA
:1008800010B5436913B1AFF3008001E0FFF7C3FD7A
:10089000012010BD127800F124010A7000224A7074
:1008A0000122EDE711684FF0FF32E9E7074B70B521
:1008B0000D467B44FFF7C9FF0446284600F03AF88E
:1008C00010B14FF0FF3070BD204670BD0320000016
:1008D00010B5203AC0F00B80B1E81850A0E81850CD
:1008E000B1E81850A0E81850203ABFF4F5AF5FEA1D
:1008F000027C24BFB1E81850A0E8185044BF18C9C2
:1009000018C0BDE810405FEA827C24BF51F8043B68
:1009100040F8043B08BF7047D20728BF31F8023BBC
:1009200048BF11F8012B28BF20F8023B48BF00F850
:10093000012B7047007B00F0800070470048704733
:10094000100000207546FFF7F9FFAE460500694626
:10095000534620F00700854618B020B5FFF77CFC11
:10096000BDE820404FF000064FF000074FF00008B0
:100970004FF0000BAC46ACE8C009ACE8C009ACE8ED
:10098000C009ACE8C00921F007018D46704710B5D9
:100990000446AFF300802046BDE81040FFF748BC96
:1009A00080B582B040F27000C2F2000000F10C0C81
:1009B0000120009040F61920C0F600000BA14FF472
:1009C00000720023CDF804C003F0F4FD012807D124
:1009D0000EA0FFF74DFE02B0BDE8804003F068B8FE
:1009E00006A002B0BDE88040FFF742BE41707054DF
:1009F00061736B43726561746500000053746172CA
:100A000074204552524F52EFBC810D0053746172F5
:100A100074696E6720210D0070B582B002F09EFDF2
:100A200001200021032203F00FFA40F27006C2F207
:100A30000006306110B948A0FFF71AFE012000211E
:100A4000032203F001FA306010B94FA0FFF710FE47
:100A5000012003F0C3F9706130B944F65B50C0F671
:100A60000000FFF785FC706900210022002303F0DD
:100A700031FB0520052103F067F9B06128B944F680
:100A80009E40C0F60000FFF7F3FD0A200C21002273
:100A900003F0DAF9B06028B944F60150C0F600005E
:100AA000FFF7E6FD4FF480700121002203F0CCF93E
:100AB0000028706040D003F07BF80028F06146D039
:100AC00006F12000019043F2813044F64F51062593
:100AD000C0F60000C0F600014FF40062002300954C
:100AE00003F068FD012805D044F64D40C0F6000033
:100AF000FFF7BEFD43F2852044F6435106F124047E
:100B0000C0F60000C0F600014FF40062002300951B
:100B1000019403F04FFD012805D044F67440C0F65F
:100B20000000FFF7A5FDF06802F086FE02B0BDE808
:100B3000704002F037BD00BF44F6CE40C0F6000062
:100B4000FFF796FD03F034F80028F061B8D11BA040
:100B5000FFF78EFDB4E700BF42696E61727953659D
:100B60006D5F48616E646C65E4BA8CE580BCE4BF7F
:100B7000A1E58FB7E9878FE5889BE5BBBAE5A4B10E
:100B8000E8B4A5EFBC810D0042696E6172795278BC
:100B900053656D5F48616E646C65E4BA8CE580BC3A
:100BA000E4BFA1E58FB7E9878FE5889BE5BBBAE590
:100BB000A4B1E8B4A5EFBC810D0000004576656ED8
:100BC000745F48616E646C6520E4BA8BE4BBB6E583
:100BD000889BE5BBBAE5A4B1E8B4A5EFBC810D00E4
:100BE000FEE700007047000072B600BFFEE700009D
:100BF000B0B5044600F0E4F8054640F20000C2F249
:100C000000000078611C18BF044400BF00F0D8F851
:100C1000401BA042FAD3B0BD2DE9F04F82B000F1E5
:100C20003E4241F6004502F1FF77C4F20205082278
:100C300043F6004E4FEAB726A84208BF0722C4F287
:100C4000010E072E38BF4FEAB722012500260027E4
:100C50004FF00008009208E008F101080437B8F1ED
:100C6000100F06F1020600F0A7800C6805FA08F9DB
:100C700014EA090FF0D0D1F804B003220BF0030CF2
:100C8000ACF10104B240012C6FEA020A10D882686C
:100C9000CC6802EA0A02B440224382604268CBF385
:100CA000001422EA090204FA08F42243426005E033
:100CB000BCF1030F02D14FF0030C20E0C2688C6836
:100CC00002EA0A02B4402243BCF1020FC26016D10C
:100CD0006FF0030202EA58020244D2F820C007F083
:100CE0001C050F230C69AB402CEA030304FA05F53D
:100CF0002B431362D1F804B001250BF0030C0268FA
:100D00000CFA06F302EA0A021A431BF4403F02609F
:100D1000A2D0002243F644030192C4F202031A68EF
:100D20004FF6084C42F480421A601A68CFF6FF7CF6
:100D300002F480420192019A28F00302724452F8B0
:100D40000C3007F00C050F24AC40A343009C04FAC0
:100D500005F52B4342F80C30DEF808204B6842EAD8
:100D6000090543F60C4CDC0258BF22EA0905CEF80F
:100D70000850C4F2010CDCF800209C0242EA09058C
:100D800058BF22EA0905CCF80050DEF804209C0385
:100D900042EA090558BF22EA0905CEF80450DEF8F8
:100DA0000020DB0342EA090558BF22EA0905CEF814
:100DB0000050012550E700BF02B0BDE8F08F0000F1
:100DC00042F6E860C2F201000068704770B5B8B33F
:100DD000044690F83D0028B9002084F83C002046E5
:100DE00000F08AFA242084F83D002068016821F090
:100DF00001010160016841F400410160016821F4D2
:100E00000041016000F018FC48F28041C0F21E0170
:100E100040F60013D4F804E088424FF00001C0F21D
:100E20003D0348F2A16C4FF0000238BF0121984207
:100E3000C0F2010C38BF0122E64538BF0A460AB1AC
:100E4000012070BD4DF68361C4F21B31A0FB01127D
:100E50002168950C4B684FF4967623F03F0343EAE4
:100E60009243754344F6D3564B60C1F262060B6A57
:100E7000A5FB0656B50923F03F03E64538BF950CA0
:100E80006A1C1A430A62CA6948F2A0664CF6FF73EC
:100E9000C0F20106B64522EA03020BD801384FEA38
:100EA0004E03B0FBF3F001306FF31F30042898BFFE
:100EB00004201EE0A368013863B119230EFB03F37D
:100EC000B0FBF3F001306FF31F3078B100F58040D4
:100ED00008E000BF0EEB4E03B0FBF3F001306FF300
:100EE0001F3028B100F5004003E000BF012000E002
:100EF00001201043C8610868D4E9072320F0C0002E
:100F0000104318430860886848F2FF3204F10C0669
:100F100090434CCE18431043A5698860C86820F000
:100F2000FF0030432843C860086840F001000860B3
:100F300000202021206484F83D10206384F83E00C6
:100F400070BD00002DE9F04784B0994616460F4663
:100F50000446FFF735FF94F83D10202927D10546B8
:100F6000206800BF816989071CD5FFF729FF411B55
:100F700020681A29F6D381698907F3D5002020213A
:100F8000206384F83D1084F83E00206C04F13C0A94
:100F900040F020002064022000218AF8001004B0F4
:100FA000BDE8F087A2461AF83C1F012904D10220AF
:100FB00004B0BDE8F08700BF01228AF80020036872
:100FC000DDE90D180C9ADB0703D1036843F0010338
:100FD0000360036823F400630360222084F83D006B
:100FE000402084F83E000020206462626185608DAC
:100FF000394620850020CFF6FF70E0622046324659
:101000004B46CDF80080019500F0ACFE20B10120E8
:1010100004B0BDE8F08700BF208DA8B102282BD016
:10102000012835D121680A6822F480620A60002212
:1010300003924A6903928A690392039A0A6842F406
:1010400000720A602CE000BF002003902068416914
:101050000391816903910399016841F40071016072
:10106000202084F83D00002084F83E0000218AF80A
:10107000001004B0BDE8F08721680A6822F480629D
:101080000A600A6842F400620A600022039202E0E9
:101090000021039121684A690392896903910399A8
:1010A0000427C0F201070CE010690870606A218D06
:1010B00001306062481E2085618D0139618501041F
:1010C000CED080B203280FD802284AD001282DD1D3
:1010D000204641462A4601F0EFF8002897D12068C3
:1010E000616A0069E1E700BF204641462A4601F0F7
:1010F000E3F800287FF48BAF2068616A006908700C
:10110000606A2268411C208D616201382085638DF0
:10111000013B638553695B07D1D580B20328C3D1F6
:10112000106820F480601060BEE700BF204639469A
:1011300000224346009500F065FF00287FF467AF6A
:101140002068616A026822F48062026000690870A7
:10115000606A218D01306062481E2085608D0138F3
:1011600060852046394600224346009500F04AFF3C
:1011700000287FF44CAF2068616A026842F4007274
:10118000026000690870606A2268411C6162218DFA
:1011900001392185618D013961851169417085E7CA
:1011A0002DE9F04383B0994616460F460446FFF7F3
:1011B00007FE94F83D10202920D10546206800BF85
:1011C0008169890716D5FFF7FBFD411B20681A29A5
:1011D000F6D381698907F3D500202021206384F8A4
:1011E0003D1084F83E00216C41F02001216484F818
:1011F0003C0003E094F83C10012903D1022003B025
:10120000BDE8F083012284F83C200368DDE90B1877
:101210000A9ADB0703D1036843F001030360036804
:1012200023F400630360212084F83D00402084F80B
:101230003E000020206462626185608D3946208511
:101240000020CFF6FF70E062204632464B46CDF8D4
:101250000080019500F012FE20B1012003B0BDE82E
:10126000F08300BF208D98B9204641462A4600F001
:1012700069FE88B3206C0428EFD12068016841F42E
:1012800000710160012003B0BDE8F0830004EBD0E1
:10129000204641462A4601F057F80028EAD1616A03
:1012A0002268084610F8013B1361238D6062581EC6
:1012B0002085678D013F678557697F07E6D507045D
:1012C000E4D048781061881C6062981E2085618D8A
:1012D00001396185DAE700BF2068016841F40071D7
:1012E0000160202084F83D00002084F83E0084F84E
:1012F0003C0003B0BDE8F083B0B586B0016845F6A8
:101300000000C4F20000814202D006B0B0BD00BFB0
:10131000002443F630050194C4F202052968122224
:1013200041F020012960296800F5DE3001F020013C
:10133000019101990321019104910421059101A9D1
:10134000CDE90224FFF768FC0094286940F480008E
:101350002861286900F480000090009806B0B0BDB4
:1013600040F2000042F6E861C2F20000C2F2010160
:1013700000780A68104408607047000080B543F6A2
:101380000040C4F20200016841F40071016001688C
:1013900041F480610160016841F4807101600320C3
:1013A00000F08AF8072000F005F800F027F8002088
:1013B00080BD000070B540F20006C2F2000640F2A7
:1013C00008013278C2F200014FF47A730968B3FB66
:1013D000F2F20446B1FBF2F1084600F045FB0F2C97
:1013E0004FF0010508D838B94FF0FF3021460022F0
:1013F000002500F035F87460284670BD82B00020EA
:1014000043F640010190C4F202014A6842F480426E
:101410004A604A6802F480420192019A009008688A
:1014200040F080500860086800F0805000900098FC
:10143000032002B000F040B8002848BF7047C1B296
:1014400000F01F00012202FA00F04EF20012CEF26C
:10145000000242EAD10121F0030108607047000058
:1014600010B54EF60C5CCEF2000CDCF80030C3F385
:10147000022E8EF00704042C28BF0424BEF10303BF
:101480004FF0FF3E0EFA04F438BF0023A143994009
:101490000EFA03F39A43114300F00F0200F1604388
:1014A0000901043A03F564436244002848BF02F18D
:1014B0000C03197010BD00004EF60C51CEF2000165
:1014C0000A684FF6FF031A4060F30A2242F0806078
:1014D00040F0FD70086070472DE9F041002800F0F1
:1014E0008B8043F60808C4F202080446D8F8F803D3
:1014F0000D4600F00700884207D288F8F853D8F864
:10150000F80300F00700A84276D12068810717D5BC
:10151000410705D5D8F8001041F4E051C8F8001093
:10152000010705D5D8F8001041F46041C8F8001053
:10153000D8F80010A26821F0F0011143C8F800109B
:10154000C0073FD1D8F8F80300F00700A84207D938
:1015500088F8F853D8F8F80300F00700A8424BD1F8
:101560002068410707D5D8F80010E26821F4E0515F
:101570001143C8F80010000708D5D8F80000216909
:1015800020F4604040EAC100C8F8000000F07CF898
:10159000D8F8001044F63542C1F30311C0F600023A
:1015A000515C40F2080220FA01F140F20400C2F25C
:1015B00000000068C2F200021160FFF7FBFE00208D
:1015C000BDE8F0816068811E022907D258F8081C26
:1015D00089015CBF0120BDE8F08111E0012807D13D
:1015E00058F8081C89035CBF0120BDE8F08107E0C2
:1015F00058F8081C890703D40120BDE8F08100BF1A
:10160000D8F8001021F003010843C8F80000FFF7E4
:10161000D7FB064641F28837D8F80000616800F031
:101620000C00B0EB810F8DD0FFF7CAFB801BB842D6
:10163000F2D90320BDE8F08140F2080043F608012A
:10164000C2F20000C4F202010068096844F6454293
:10165000C1F38221C0F60002515CC840704700000F
:1016600040F2080043F60801C2F20000C4F2020191
:101670000068096844F64542C1F34231C0F60002F1
:10168000515CC8407047000010B543F60404C4F232
:101690000204606800F00C0142F200400829C0F228
:1016A000F40007D0042918BF10BD41F20020C0F299
:1016B0007A0010BD216801F03F02216823684902C9
:1016C000C3F3881106D4A1FB00010023FEF7D7FD68
:1016D00007E000BF41F20020C0F27A004843B0FBAF
:1016E000F2F021680222C1F3014102EB4101B0FB9B
:1016F000F1F010BD2DE9F04182B0002868D0044619
:10170000007843F60006C007C4F202060BD0B068AA
:1017100000F00C00042840F09F803068800302D560
:101720006068002854D0207880071AD5B06810F07F
:101730000C0F09D0B06800F00C00082840F0A6801B
:101740007068400200F1A2803068800702D5E0682E
:1017500001283DD13068216920F0F80040EAC1003D
:1017600030602078000737D4207840074CD4A56932
:1017700055B3B06800F00C00082840F0BB80012D84
:1017800026D07068E16900F480028A4220D1216A83
:1017900000F03F028A421BD147F6C071626A0140E5
:1017A000B1EB821F14D1A16A4FF6FF73C9039943AD
:1017B00000F44032A1F580318A4209D1E16A00F09B
:1017C0007060B0EB016F03D1002002B0BDE8F08182
:1017D000012002B0BDE8F0816069002840F20000FD
:1017E000C4F2472076D00121C0F8801EFFF7E8FA46
:1017F000054600BF706F8007B6D4FFF7E1FA401BC3
:101800000228F7D9DDE000BF306C10F080580AD113
:1018100000200190306C40F080503064306C00F05B
:1018200080500190019847F20007C4F20007386821
:10183000C00541D4386840F480703860FFF7C0FAC2
:10184000054600BF3868C00536D4FFF7B9FA401B1B
:101850000228F7D9B5E000BFB06800F00C000828F6
:1018600003D1706840023FF558AF6068B0F5803F23
:1018700007D0B0F5A02F40F08D80306840F4802074
:101880003060306840F4803030608DE0E0680028DF
:1018900052D00020C4F2472001210160FFF790FAE6
:1018A000054600BF306880073FF554AFFFF788FA60
:1018B000401B0228F6D984E0A068012805D005283D
:1018C0004ED1306F40F004003067306F40F00100BF
:1018D00030674FE00021C0F8801EFFF771FA05461F
:1018E000706F80077FF540AFFFF76AFA401B022850
:1018F000F6D966E00027C4F2472700203866FFF7D4
:101900005FFA022D05460BD1306880015ED5FFF7E6
:1019100057FA401B02284FF00300F5D955E700BFE6
:10192000306880017FF550AFFFF74AFA401B02286C
:101930004FF00300F4D948E70020C4F2472000210B
:101940000160FFF73DFA0546306880077FF509AF73
:10195000FFF736FA401B02284FF00300F4D934E7B2
:10196000316F002821F001013167316F21F004014E
:1019700031674DD0FFF724FA054641F2883700BFA2
:10198000306F800756D4FFF71BFA401BB842F7D9D7
:1019900017E000BF3168002821F4803131603168E0
:1019A00021F4802131604FD0FFF70AFA054600BFCD
:1019B000306880033FF5B7AEFFF702FA401B64289A
:1019C000F6D9032002B0BDE8F08100BF04F11C0588
:1019D0002FCD084340EA8210D9034FF6FF7291439E
:1019E000A1F5803140EA0560084370600120386647
:1019F000FFF7E6F9044600BF306880013FF5E4AE2A
:101A0000FFF7DEF9001B02284FF00300F4D9DCE6F3
:101A1000FFF7D6F9054641F2883700BF306F8007DF
:101A200008D5FFF7CDF9401BB8424FF00300F5D9B8
:101A3000CBE600BFB8F1000F7FF499AE306C20F018
:101A40008050306493E600BFFFF7BAF9054600BF47
:101A5000306880037FF567AEFFF7B2F9401B64285A
:101A60004FF00300F4D9B0E6411E0020B0EB116F37
:101A70001CBF012070474EF21002CEF200025160EE
:101A80004EF62351CEF20001F0230B700721906037
:101A900011607047002804BF0120704710B504464C
:101AA00090F8410028B9002084F84000204600F05A
:101AB00021F8242084F841002068C16821F40051F5
:101AC000C160204600F028FE2068016921F49041A1
:101AD0000161416921F02A014161C16841F400516D
:101AE000C16000202021606484F8411084F8421015
:101AF000606310BD80B586B0016841F20040C4F259
:101B00000100814202D006B080BD00BF002143F633
:101B100030020191C4F20202536900F5744043F0AF
:101B200020035361536903F020030193019B01914A
:101B3000136843F004031360126802F00402019278
:101B4000019AC02201920222CDE9022103210491CF
:101B50000821059101A9FFF75FF806B080BD0000DC
:101B60002DE9F041044690F8410020281CBF0220D6
:101B7000BDE8F0810D4600294FF0010000F0AA8079
:101B80001646002A08BFBDE8F081002060642120CD
:101B9000984684F84100FFF713F9A684E684A1680B
:101BA0000646B1F5805F02D12069002862D02F4639
:101BB0000025E08C002861D018F1010018D0B8F1A0
:101BC000000F37D1216808E017F8010B4860E08C5E
:101BD0000138E084E08C002851D00868000673D5F5
:101BE000002FF1D135F8020B00276FF35F20EDE7EE
:101BF000216802E00868000609D40868000606D4D7
:101C0000086800065CBF08685FEA0060F2D51FB193
:101C100017F8010B05E000BF35F8020B00276FF342
:101C20005F204860E08C0138E084E08C0028E4D13B
:101C300025E000BF216800BF0868000608D4FFF750
:101C4000BFF8801B404541D82168C868F4E700BF51
:101C500017B117F8010B04E035F8020B00276FF3FA
:101C60005F204860E08C0138E084E08C0028E3D1FC
:101C700005E000BF0027E08C00289DD1216808689E
:101C800040061FD4B8F1000F1ED018F101000FD18B
:101C90000868400616D40868400613D40868400651
:101CA00010D4086840064FF00000F1D50FE000BFE7
:101CB000FFF786F8801B404508D82068C168006897
:101CC0004006F5D5002002E0FFF77AF80320202136
:101CD00084F84110BDE8F0811EF0040F0CBFEFF353
:101CE0000880EFF3098000F001B87047ADF50E7D74
:101CF0004EF6285600F10C0ECEF2000690E8080CC5
:101D00009EE81050D0E90659D6F800807768B06890
:101D10007169F2683669CDE90872CDE90A6002A8F6
:101D200080E8105044F682520EAC0C91C0F60002CE
:101D300020464FF40071CDE900ABCDE90559CDF84F
:101D40001C80FEF721FB82B240F23C20C2F2000070
:101D500021464FF0FF33FFF703FF6420FEF748FFF3
:101D6000FEE700002DE9F04782B0044600680E4609
:101D70000168DDF828A041F4806101600168DDF8A8
:101D80002C9041F480711D461746016020464FF0AB
:101D9000011100225346CDF8009000F033F958B1FC
:101DA00020680068C00544BF4FF400702064032021
:101DB00002B0BDE8F08700BF40F202082068C0F220
:101DC000010806F0FE0606612046414652464B4693
:101DD00000F002FA20B1012002B0BDE8F08700BF98
:101DE0000020019020684A4641690191806951466E
:101DF00001900198204600F0A7FA98B92068012DBB
:101E000008D0390A0161204651464A4600F09CFA42
:101E100040B92068F9B20161204651464A4600F0B7
:101E200093FA58B1206C0428D5D12068016841F498
:101E300000710160012002B0BDE8F0872068002237
:101E40000168534641F48071016020464FF0011152
:101E5000CDF8009000F0D6F80028A1D1206846F017
:101E6000010101612046414652464B4600F0B4F95B
:101E7000002818BF012002B0BDE8F0872DE9F0432B
:101E800083B0044600680D4601680A9F0B9E41F42A
:101E9000807199469046016020464FF00111002262
:101EA0003B46009600F0AEF850B120680068C005CF
:101EB00044BF4FF400702064032003B0BDE8F083FA
:101EC000206805F0FE0101610221C0F201012046F7
:101ED0003A46334600F080F920B1012003B0BDE856
:101EE000F08300BF002002902068324641690291D1
:101EF0008069394602900298204600F025FA58B1D0
:101F0000206C0428E9D12068016841F40071016067
:101F1000012003B0BDE8F0832068B9F1010F0AD0B9
:101F20004FEA1821016120463946324600F00CFA8A
:101F30000028E5D120685FFA88F10161002003B034
:101F4000BDE8F08370B50368044653F8140F4007EA
:101F500011D40E46481C29D086BB00BF1868400526
:101F600027D4FEF72DFF236853F8140F400739D507
:101F700018684007F2D5002070BD00BF1868400700
:101F8000F9D41868400514D418684007F3D41868C9
:101F900040050ED418684007EDD41868400508D4F1
:101FA000186840074FF0000048BF70BD1868400532
:101FB000E4D56FF480601860042014E0154603E057
:101FC00053F8140F4007D6D418684005F1D4FEF733
:101FD000F7FE401B2368B042F2D958694007EFD49E
:101FE000202000E0202000212022216384F83D20D1
:101FF00084F83E10226C10432064012084F83C10C9
:1020000070BD00002DE9F041054600681E461446EB
:1020100001F47F0201338FB242D0DDF81880B2F5AF
:10202000803F40F0878040693840C01BB0FA80F0A4
:102030004009A04240F0C8804EB924E040693840D1
:10204000C01BB0FA80F04009A04240F0BD80FEF70E
:10205000B7FEA0EB08012868B142EFD941693940C9
:10206000C91BB1FA81F14909A142E7D19BE000BF48
:1020700040693840C01BB0FA80F04009A0424FF0E0
:10208000000040F0A680FEF79BFE286841693940B9
:10209000C91BB1FA81F14909A142E9D183E000BF2E
:1020A000B2F5803F24D100BF41693940C91BB1FA64
:1020B00081F14909A14240F0878041693940C91B3B
:1020C000B1FA81F14909A14240F07E80416939406D
:1020D000C91BB1FA81F14909A14275D14169394061
:1020E000C91BB1FA81F14909A142DDD06CE000BF02
:1020F00081693940C91BB1FA81F14909A14263D113
:1021000081693940C91BB1FA81F14909A1425BD10A
:1021100081693940C91BB1FA81F14909A14253D102
:1021200081693940C91BB1FA81F14909A142DFD067
:102130004AE000BF80693840C01BB0FA80F0400917
:10214000A04241D146B923E080693840C01BB0FAB3
:1021500080F04009A0423BD1FEF732FEA0EB08011F
:102160002868B142F0D981693940C91BB1FA81F1BF
:102170004909A142E8D116E080693840C01BB0FA95
:1021800080F04009A0424FF0000018BFBDE8F08188
:10219000FEF716FE286881693940C91BB1FA81F142
:1021A0004909A142E8D100202021286385F83D108B
:1021B00085F83E00296C41F02001296485F83C0037
:1021C0000120BDE8F08100BF0020BDE8F08100BF24
:1021D0000020BDE8F0810000F0B581B00446006841
:1021E0001D4643698FB203EA0701B94202D10020BC
:1021F00001B0F0BD41691646013201F4806125D07D
:10220000002940D1CEB100BFFEF7DAFD411B2068A6
:10221000B14203D941693940B9424BD14169394092
:10222000B942E4D041694905EED52CE04169394015
:10223000B942DCD04169490525D4FEF7C1FD2068CB
:1022400041693940B942F1D0202024E0D9B941692F
:102250003940B942CBD04169490514D4416939406C
:10226000B942C4D0416949050DD441693940B942E8
:10227000BDD04169490506D441693940B942B6D05B
:1022800041694905E3D5016841F4007101606FF4CB
:1022900080614161042000212022216384F83D20D7
:1022A00084F83E10226C1043206484F83C10012016
:1022B00001B0F0BD2020EEE770B504460068154679
:1022C00050F8143F5A063DD40E4629B926E000BF07
:1022D00050F8141F490635D40168C90621D4FEF709
:1022E0006FFD411B2068B142F2D941694906EFD424
:1022F00000202021206384F83D1084F83E00206CEB
:1023000040F0200018E000BFFEF75AFD206850F8AA
:10231000141F4906ECD50168490613D40168C906A3
:10232000F2D56FF01001016000202021206384F8B5
:102330003D1084F83E00206C2064002084F83C00AE
:10234000012070BD002070BD70B50368044653F8CD
:10235000140F000611D40E46481C29D086BB00BFBE
:102360001868400527D4FEF72BFD236853F8140F97
:10237000000639D518680006F2D5002070BD00BFF0
:1023800018680006F9D41868400514D418680006C7
:10239000F3D4186840050ED418680006EDD4186808
:1023A000400508D4186800064FF0000048BF70BD13
:1023B00018684005E4D56FF480601860042014E0CC
:1023C000154603E053F8140F0006D6D418684005EC
:1023D000F1D4FEF7F5FC401B2368B042F2D95869EE
:1023E0000006EFD4202000E02020002120222163DD
:1023F00084F83D2084F83E10226C104320640120B4
:1024000084F83C1070BD00002DE9F04184B0044612
:1024100001250DF10F006426CDE900052046D021ED
:10242000752201230296FEF78DFD9DF80F006828A6
:1024300031D14FF000080DF10E072046D0216B225C
:1024400001238DF80E80CDE900750296FEF7A8FEF7
:1024500007208DF80E002046D02119220123CDE956
:1024600000750296FEF79CFE2046D0211C22012317
:102470008DF80E80CDE900750296FEF791FE20469C
:10248000D0211B2201238DF80E80CDE90075029624
:10249000FEF786FE0025284604B0BDE8F081000066
:1024A00081B0002043F630010090C4F202010A68B6
:1024B00042F020020A600A6802F020020092009AAC
:1024C00000900A6842F080020A600A6802F0800206
:1024D0000092009A00900A6842F004020A600A68BA
:1024E00002F004020092009A0090086840F0010097
:1024F0000860086800F001000090009801B0704783
:1025000080B540F2E81045F60001C2F20000C4F2C6
:10251000000148F2A06200234FF4804CC0F2010297
:1025200080E80E00C0E9033CC0E90533C0E9073389
:10253000FEF74CFC002808BF80BDBDE88040FEF7D8
:1025400053BB0000B0B582B040F23C2441F20040E1
:10255000C2F20004C4F201004FF4E13100250C2264
:1025600084E823002046C4E90355C4E90525E56154
:10257000FFF790FA002818BFFEF736FB2068C16805
:1025800041F02001C160C16841F01001C1600195B6
:102590000168019140680190019802B0B0BD00004F
:1025A000FEE70000FEE70000000000000000000061
:1025B000EFF30980BFF36F8F154B1A681EF0100FF1
:1025C00008BF20ED108A20E9F04F10604DF8043D5F
:1025D0004FF0500080F31188BFF34F8FBFF36F8F20
:1025E00001F0AEFA4FF0000080F311885DF8043B73
:1025F00019680868B0E8F04F1EF0100F08BFB0EC83
:10260000108A80F30988BFF36F8F704700BF00BF47
:10261000B8000020000000000000000000000000E2
:10262000074B19680868B0E8F04F80F30988BFF3DA
:102630006F8F4FF0000080F31188704700BF00BF1C
:10264000B800002080B5FEF78BFE02F0D5F8012817
:1026500008BF80BDBDE8804001F05EBBB0B592B060
:10266000002443F64000CDE90A44CDE9084405942E
:10267000CDE90344CDE901440094C4F202000168AD
:10268000022541F080510160006800F08050009008
:10269000009847F200000094C4F20000016841F481
:1026A000804101600068A82100F4804000900098FB
:1026B000012006904FF4803007904FF480000D9079
:1026C00004200E90119006A80C95CDE90F15FFF788
:1026D00011F818B172B600BFFEE700BF0F20CDE9B8
:1026E00001054FF4A05004904FF48050059001A8CC
:1026F00005210394FEF7F0FE10B172B6FEE700BFAD
:1027000012B0B0BD4EF68850CEF20000016841F420
:10271000700101607047000010B504460068D4E9FC
:1027200002C22369016921F44051114301616269C8
:1027300043EA0C01E3691143C268194349F20C638F
:102740009A431143C1604169A26921F4407141F289
:102750000043114340F48062C4F201039A42416194
:1027600002D1FEF77DFF01E0FEF766FFE1696368D5
:102770001922B1F5004FA0FB020123D15A00DB0F53
:10278000FDF77DFD48F21F51C5F2EB11A0FB0123BF
:102790005A094FF69C73C0F6FF7303F1805302FB96
:1027A0000300322303EBC000A0FB01014FF4F870DB
:1027B00000EA111000EB0210C1F342110844216835
:1027C000886010BD9A009B0FFDF759FD48F21F511C
:1027D000C5F2EB11A0FB01235A094FF69C73C0F61A
:1027E000FF7302FB0300322303EB0010A0FB010187
:1027F000F02000EA511000EB0210C1F3431108442D
:102800002168886010BD000010B584B040F23C24FF
:10281000C2F2000420680168890611D5416840F2BF
:102820007400C2F2000000688DF80B100DF10B016E
:1028300003AA002301F064FD20686FF0200101600D
:102840000068C0061CD540F27000C2F200000068AB
:1028500003A901F001FE00200190206801680191A8
:10286000406801900198039850B14EF60450CEF2A2
:1028700000004FF080510160BFF34F8FBFF36F8FA7
:1028800004B010BDFEE700004EF60C50BFF34F8FB2
:10289000CEF200000168042201F4E061C0F2FA52B5
:1028A00011430160BFF34F8F00BF00BF00BF00BFE7
:1028B000FAE700007047000080B582B0019040F256
:1028C0003C20C2F2000001A901224FF47A73FFF705
:1028D00047F9019802B080BD40F2E810C2F2000052
:1028E000FFF792BDFEF74AFDFFF7B8FEFFF7D8FDF0
:1028F000FFF728FEFFF704FE472005210022FEF720
:10290000AFFD4720FEF798FDFFF7E6FF20B9FEF781
:1029100047F800BFFEE700BF02A0FDF729FD72B631
:10292000FFF7B2FF6E6F2061707020637265617493
:1029300065642120726573657474696E67206465CF
:1029400076696365210A0D0028B940F2B800C2F229
:102950000000006810B13430704700BF4FF05000E5
:1029600080F31188BFF36F8FBFF34F8FFEE7000036
:10297000F0B581B040F2B804C2F200040E46E76937
:1029800021680546081D00F07DFD18B1681C0CD0BB
:1029900016E000BF20680121C06A626801FA00F0F9
:1029A00022EA00006060681C0AD14EB154F8500B56
:1029B000011D204601B0BDE8F04000F0B7BD00BFEA
:1029C0002068ED19456007D3606A2168043101B0C1
:1029D000BDE8F04000F078BD206A2168043100F0C5
:1029E00073FDE06A854238BFE56201B0F0BD0000CA
:1029F00082B040F2B80640F28427C2F20006C2F26A
:102A000000070125F06800285ED0B069D6F83C9038
:102A10000130B061B069002800F0048100F09EFD33
:102A2000B0690138B061B069D0B100F0BBFDB9F157
:102A3000000FE7D000F092FDB06CC468201D00F0DC
:102A400021FD306901383061F0680138F06000F034
:102A5000A9FD206B00F0BEFD204600F0BBFDD1E7D4
:102A600030690028E1D0706E002842D04FF0010894
:102A70003D4600BF306FC76807F1180000F002FD47
:102A80003C1D204600F0FEFCF86A716808FA00F26E
:102A9000114300EB8000716005EB8000214600F0DF
:102AA00045FDF86A3168C96A884228BFC6F8308097
:102AB000706E0028DED1306A0068A8B1306AC06844
:102AC000C068406812E000BF386802289AD34EF60A
:102AD0000450CEF200004FF080510160BFF34F8FE1
:102AE000BFF36F8F8EE700BF4FF0FF302F460125F9
:102AF000F062CDF80490D6F834A0BAF1000F14D1EA
:102B0000306BDDF80490002840F080808DE700BF36
:102B1000706B4FF0000901307063306B50EA0900B0
:102B200018BF3563BAF1010A68D0B0690028EFD147
:102B3000F06910F10108C6F81C8016D3306A0068ED
:102B4000002840F07980306A716A31627062B06B3F
:102B50000130B063306A006820B1306AC068C06874
:102B6000406801E04FF0FF30F062F06A804503D228
:102B70004FF0000937E000BF306A4FF000090068ED
:102B800017E000BFDBF82C00716805FA00F2114372
:102B900000EB8000716007EB8000214600F0C6FC6E
:102BA000DBF82C003168C96A326A8842106828BF95
:102BB000A946A8B1306AC068D0F80CB05C4654F899
:102BC000040F80450ED3204600F05CFCDBF82800A3
:102BD0000028D7D00BF1180000F054FCD2E700BF5A
:102BE0004FF0FF30F0623068C06A00EB800057F8A9
:102BF0002000012888BF4FF001098EE70020706394
:102C0000306BDDF8049000283FF40FAF4EF604500F
:102C1000CEF200004FF080510160BFF34F8FBFF341
:102C20006F8F02E74FF0500080F31188BFF36F8F72
:102C3000BFF34F8FFEE700BF4FF0500080F31188C5
:102C4000BFF36F8FBFF34F8FFEE7000006480068A9
:102C5000006880F3088862B661B6BFF34F8FBFF398
:102C60006F8F00DF00BF000008ED00E040F20C00B5
:102C7000C2F2000000684FF0500181F31188BFF3E9
:102C80006F8FBFF34F8F013002D000BFFEE700BF50
:102C9000FEE7000086B040F2301AC2F2000A0DF1E1
:102CA0000C09E8464FF0010BDAF8080005681DB181
:102CB000C068046801E000BF002400F039FF01F0A3
:102CC000ABFDDAF810100646884224D3002DCAF86E
:102CD000106053D0A64251D301F0BEFEDAF80800CE
:102CE000C068C7683D1D284600F0CCFBF869012884
:102CF00040F08080B8693F610119B14279605BD9C9
:102D00000AF108005DE000BF6860DAF808003946A3
:102D10002D6100F0D9FBDAF80800016821B3C06822
:102D2000C56804682F1D384600F0ACFB696A284668
:102D30008847E8690128EED1A8692044A042E3D879
:102D4000DAF80000002800F01981002003A931C141
:102D500001F052FDDAF8000049460022002301F09C
:102D6000B9F90028D7D109E1DAF80C10CAF81060D7
:102D7000CAE9021001F070FE46E000BF15B1002262
:102D800006E000BFDAF80C000068B0FA80F04209F3
:102D9000DAF80000A11B00F025FD01F05DFE98BBF4
:102DA0004EF60450CEF200004FF080510160BFF3A8
:102DB0004F8FBFF36F8F27E0311B814206D20AF19C
:102DC0000C000068294600F07FFB13E0DAF80000F1
:102DD000002800F0F180002003A991C101F00CFD52
:102DE000DAF8000049460022002301F073F90028B8
:102DF00000F0E280796A3846884705E00AF10C0065
:102E0000006800F061FB00BFDAF8000041460022D4
:102E1000002301F05DF800283FF446AF0098002839
:102E2000F2D4029E706910B1301D00F02BFB01F04E
:102E3000F3FCDAF81010074688423AD2C34606E09F
:102E40006860DAF8080021462D6100F03DFBDAF8F1
:102E50000800016831B3C068C568D0F800802C1D37
:102E6000204600F00FFB696A28468847E869012878
:102E7000EDD1A86940444045E2D8DAF800000028C6
:102E800072D00020CDE90308059501F0B5FCDAF811
:102E9000000049460022002301F01CF90028D6D189
:102EA00062E000BFDAF80C10D8464FF0010BCAE917
:102EB00002100098CAF810700928A5D80BFA00F182
:102EC00011F0C70F10D0019AB0693146831841F84C
:102ED000043FBB4236611DD997420AF10800BFF496
:102EE0008FAF93421AD28BE711F4047F34D001984C
:102EF0000028B06156D0384431460AF10C0241F83E
:102F0000040F3661B84288BF0AF10802106800F069
:102F1000DBFA79E7BA1A8242FFF470AF716A304681
:102F20008847F06901287FF46FAFDAF8000078B3C2
:102F30000198B169059608440021CDE9031001F01C
:102F40005BFCDAF8000049460022002301F0C2F8D9
:102F500000287FF459AF1BE005287FF455AF3046B9
:102F600000F038FB50E700BF4FF0500080F31188AD
:102F7000BFF36F8FBFF34F8FFEE700BF4FF05000DE
:102F800080F31188BFF36F8FBFF34F8FFEE700BF51
:102F90004FF0500080F31188BFF36F8FBFF34F8F56
:102FA000FEE700BF4FF0500080F31188BFF36F8F32
:102FB000BFF34F8FFEE700BF4FF0500080F3118842
:102FC000BFF36F8FBFF34F8FFEE70000F0B581B006
:102FD000044600F0C3FA94F94560012E0FDB04F1BA
:102FE000240500BF286850B1284601F0FBFC0028EA
:102FF00018BF00F093FCF0B2013E0128F2D8FF2682
:1030000084F8456000F0CEFA00F0A8FA94F9447014
:10301000012F0EDB04F11005286850B1284601F09D
:10302000E1FC002818BF00F079FCF8B2013F01284C
:10303000F2D884F8446001B0BDE8F04000F0B2BAC4
:1030400070B5044600F074FD40F2A00CC2F2000C12
:10305000DCF8040050B19CF80000002818BF4FF0C5
:1030600000404FF0000584BB8FE000BF40F2E82035
:10307000C2F20000C21D22F0070210F00701A0EB0F
:10308000020318BF104600224FF49635CCF810000A
:10309000CCF81420002918BF03F59635411921F00A
:1030A0000701A1F10803CCF8043041E90222191A02
:1030B000C0E9003101208CF800004FF00040CCE95D
:1030C0000211002C4FF000055FD020405DD124F0AC
:1030D000070000F11002600708BF04F10802002A8F
:1030E0004FF0000551D0DCF8080082424DD8604610
:1030F00050F810EFDEF8045095422CD2DEF80010A4
:10310000C1B174464D68954218D20B68B3B15D6881
:10311000954217D21868A8B14568954216D204683E
:10312000A4B16568954215D22168A6460029E9D167
:1031300011E000BF0CF110000DE000BF8E462046EC
:1031400009E000BF9E46084605E000BF86461846D7
:1031500001E000BFA646DCF804108E4514D00168DB
:10316000DEF80040AB1A112B04604DD30EEB0205C4
:10317000680719D04FF0500080F31188BFF36F8FAC
:10318000BFF34F8FFEE700BF002501F065FC680725
:1031900055D04FF0500080F31188BFF36F8FBFF30D
:1031A0004F8F00BFFEE700BF0CF110006B60CEF840
:1031B000042000BF0368AB420AD21868A8420BD2B1
:1031C0000368AB4204D218681A46A842F2D304E05E
:1031D0000246184601E000BF1A4653686C68D618CC
:1031E000AE4202D11C44154654602B19834207D1CC
:1031F000DCF80430984203D0D0E9000323446B602C
:10320000AA42286018BF156001F10805DEF8040025
:10321000DCE90212091A9142CCF8081038BFCCF848
:103220000C109CF8001000294FF0000118BF40F06E
:103230000040CEE9001001F00FFC6807A9D1284634
:1032400070BD000040F2B800C2F20000016819B180
:103250000168CA6C0132CA6400687047034642F6CE
:103260006D40C0F600004FF0807C21F0010103E9C1
:1032700003106FF0020043F8240CA3F1440043F85C
:10328000202C7047C6B005AC204640F20111FDF776
:1032900052FA40F2700744F6345BC2F200074FF076
:1032A00000090DF113054FF00108C0F6000B03E013
:1032B0002EA05946FDF75CF8386800214FF0FF3228
:1032C000002300F005FE0128F6D178682946002287
:1032D00000234FF0000A00F0FBFD012814D14FF04D
:1032E000FF3000BF9DF81310461C221878685170FB
:1032F00029460022002300F0EBFD012802D1FF2E19
:103300003046EFD306F1010A0AF10106304604F80F
:103310000A908DF80480FFF793FE00280290ADF824
:103320000CA0C5D021463246FDF7B8F9204640F240
:103330000111FDF700FAB86801A94FF0FF32002330
:1033400000F0C8FE0128B7D003A05946FDF710F8D9
:10335000029800F03FF9AFE725732073656E642093
:103360006572726F72210D0A000000002573204DF6
:10337000616C6C6F63206572726F72210D0A0000C0
:1033800084B040F27007C2F2000701AC0FF270087F
:103390000FF280090FF2900A2CA532A604E000BFBC
:1033A0003046FCF7E5FF00BFB86821464FF0FF321A
:1033B000002300F08DFD0128F6D19DF804100129AD
:1033C00014D00029ECD102980028EDD001684846BD
:1033D000FCF7CEFF50464FF49631FCF7C9FF01F0E1
:1033E00005FAFFF7B1FA0146284603E002990029E1
:1033F000DAD04046FCF7BCFF029800F0EBF8D3E7C8
:103400005265636569766520646174613A0A257363
:10341000210D0A006D616C6C6F63203A20256420D9
:103420004B42210D0A000000436F6E66696775729A
:10343000656420686561702073697A653A20256447
:103440002062797465730D0A000000004375727282
:10345000656E742048616E646C653A202573210D99
:103460000A000000556E6B6E6F776E205458207204
:1034700065717565737420747970653A20256420D0
:10348000210D0A00D0E9013201699A60D1F804C027
:1034900082688445536008BF4A600B68002202615D
:1034A000581E0860704700004FF0FF31024642F896
:1034B000081F0021C0E90322C0E900127047000084
:1034C000002101617047000010B5D1F800E01EF145
:1034D000010213D000F1080462681368734511D823
:1034E00053681C68744511D85A68146874450FD81D
:1034F00054682368A4467345EED90BE00269D2F8FC
:1035000004C007E09446224604E000BF9C4601E068
:1035100094461A46C1F804C0CCF808108A6051607D
:1035200002680861511C016010BD00004268D0F8BB
:1035300000C093684A608B6093689160596008612D
:103540000CF1010101607047DFF80C00016841F4E3
:10355000700101607047000088ED00E04FF05000FE
:1035600080F31188BFF36F8FBFF34F8F40F20C00D1
:10357000C2F2000001684A1C026009B1704700BF36
:103580004EF60450CEF200000068000608BF7047F7
:103590004FF0500080F31188BFF36F8FBFF34F8F50
:1035A000FEE7000040F20C00C2F20000016839B1F1
:1035B0000139016018BF7047002080F311887047FF
:1035C0004FF0500080F31188BFF36F8FBFF34F8F20
:1035D000FEE7000070B5002808BF70BD40F2A006ED
:1035E000C2F200060446307854F8041C002818BFC4
:1035F0004FF0004008420DD0A4F108052A689AB1A6
:103600004FF0500080F31188BFF36F8FBFF34F8FDF
:10361000FEE700BF4FF0500080F31188BFF36F8FBB
:10362000BFF34F8FFEE700BF21EA000044F8040C0F
:1036300000F07EFA54F8041CB0680844B06006F14B
:10364000100000BF0368AB420AD21868A84223D218
:103650000368AB4204D218681A46A842F2D301E0CC
:10366000024618465368D418AC4202D11944154694
:1036700051606B18834206D17368984203D0D0E939
:10368000000319446960AA42286018BF1560BDE8AC
:10369000704001F0E1B900BF1A465368D418AC423B
:1036A000E7D1E3E740F20800C2F20000006844F608
:1036B000D351C1F26201A0FB01014FF0FF3000EBDA
:1036C00091104EF21001CEF2000148600720086010
:1036D0007047000040F29800EFF305811029C2F214
:1036E000000011D34EF2F032CEF20002895C027873
:1036F000914209D24FF0500080F31188BFF36F8FD1
:10370000BFF34F8FFEE700BF4EF60C51CEF2000123
:103710000968406801F4E061814298BF70474FF04A
:10372000500080F31188BFF36F8FBFF34F8F00BF3E
:10373000FEE7000042F6EC6CC2F2010CDCF800205F
:1037400022B3634653F8082F42B3634653F8102F51
:1037500052B3634653F8182F62B3634653F8202FD1
:1037600072B3634653F8282F82B3634653F8302F61
:1037700092B3634653F8382F002A18BF70470722C8
:1037800019600CEBC2014860704700BF002263461D
:1037900019600CEBC2014860704700BF012219603C
:1037A0000CEBC20148607047022219600CEBC201A9
:1037B00048607047032219600CEBC20148607047F3
:1037C000042219600CEBC2014860704705221960A1
:1037D0000CEBC20148607047062219600CEBC20175
:1037E0004860704770B515460E460446FFF7B6FEB2
:1037F00094F84400FF2804BF002084F8440094F8A3
:103800004500FF2804BF002084F84500FFF7CAFEEA
:10381000A06B28B12046BDE87040FFF7D7BB00BFC2
:1038200004F1240031462A4600F09CF82046BDE809
:103830007040FFF7CBBB000070B50446FFF78EFE6B
:1038400040F2B806002CC2F2000608BF3468251DFD
:103850002846FFF717FE80B9E06A40F2842200EBA9
:103860008001C2F2000252F8211031B901217268C0
:1038700001FA00F022EA00007060A06A18B104F1B9
:103880001800FFF7FFFD3068B168844201F10101C3
:10389000B16011D0306901383061206BFFF79AFEBA
:1038A0002046FFF797FE306A006898B1306AC0681A
:1038B000C068406810E000BF06F13C002946FFF7F1
:1038C00035FEF0680130F060FFF76CFE706948B9B2
:1038D00070BD00BF4FF0FF30F062FFF763FE70690C
:1038E0000028F5D03068844218BF70BDB06948B177
:1038F0004FF0500080F31188BFF36F8FBFF34F8FED
:10390000FEE700BF4EF60450CEF200004FF08051AB
:103910000160BFF34F8FBFF36F8F70BD40F2B800EF
:10392000C2F20000012101637047000010B578B1B8
:103930000C4640F2B801C2F2000109681831FFF7E5
:10394000C3FD20460121BDE81040FFF711B800BFBC
:103950004FF0500080F31188BFF36F8FBFF34F8F8C
:10396000FEE7000070B588B140F2B806C2F200066A
:103970000C46316815461831FFF7D8FD85B14FF078
:10398000FF302946BDE87040FEF7F2BF4FF050000F
:1039900080F31188BFF36F8FBFF34F8FFEE700BF37
:1039A000F56930680430FFF76DFD58B1306864196F
:1039B000446014D3706A31680431BDE87040FFF789
:1039C00083BD00BF30680121C06A726801FA00F04F
:1039D00022EA00007060306864194460EAD2306AFC
:1039E00031680431FFF770FDF06A844238BFF46239
:1039F00070BD0000F0B581B0F8B140F2B806C2F277
:103A000000060446C06A3168C96A884215D2A169B5
:103A1000002904D43168C96AC1F10501A16140F2ED
:103A20008427616900EB8000C2F2000707EB800089
:103A3000814205D03068C06AE06201B0F0BD00BFCD
:103A4000251D2846FFF71EFD60B9E06A00EB8001E6
:103A500057F8211031B90121726801FA00F022EA09
:103A60000000706030680121C06AE06272688140C5
:103A70000A4300EB800007EB80002946726001B02A
:103A8000BDE8F040FFF752BD40B140F2B801C2F2CC
:103A900000018A6B0260C969416070474FF05000B5
:103AA00080F31188BFF36F8FBFF34F8FFEE70000E5
:103AB000B0B582B040F2B8050020C2F20005009017
:103AC00042F6F11005F12804C0F6000016A182228A
:103AD0000023019400F06EFD012808BF01F032F8C8
:103AE000411C15D001281DD14FF0500080F31188E2
:103AF000BFF36F8FBFF34F8F4FF0FF30E8620120AD
:103B000068610020E86102B0BDE8B04000F05EB836
:103B10004FF0500080F31188BFF36F8FBFF34F8FCA
:103B2000FEE700BF02B0B0BD49444C4500000000B4
:103B300040F2B800C2F20000816901318161704732
:103B400040F2B800C2F20000816900291EBF0121C5
:103B500001637047002101634168B1FA81F1C9B284
:103B6000C1F11F0140F2842201EB8101C2F2000287
:103B700052F8213063B102EB810252F8041F496808
:103B8000131D994211600DD0C9680160704700BFD4
:103B90004FF0500080F31188BFF36F8FBFF34F8F4A
:103BA000FEE700BF49681160C96801607047000006
:103BB00010B51C20FFF744FA044628B10021204626
:103BC00040F8041BFFF770FC204610BD82B04EF297
:103BD0000040CEF200004CF27021C4F20F11D0F878
:103BE00000294B1C9A4209D14FF0500080F31188F4
:103BF000BFF36F8FBFF34F8FFEE700BFD0F80029F0
:103C00008A4209D14FF0500080F31188BFF36F8FC3
:103C1000BFF34F8FFEE700BF01780191FF210170D4
:103C200001788DF803109DF8031001F0500240F266
:103C30009801C2F200010A709DF90320B2F1FF3F22
:103C400002DD4FF4E06234E0072200BF9DF803304C
:103C50005B008DF803309DF90330B3F1FF3F1FDCAB
:103C60009DF803305B008DF803309DF90330B3F10C
:103C7000FF3F17DC9DF803305B008DF803309DF9A2
:103C80000330B3F1FF3F0FDC9DF80330043A5B00D3
:103C90008DF803309DF90330002BD7D405E000BF29
:103CA000013A02E0023A00E0033A4FF4E06303EA2B
:103CB00002224A6001990170D0F8201941F4700184
:103CC000C0F82019D0F8201941F07041C0F820192F
:103CD000FFF7E8FC40F20C04C2F200040020206070
:103CE000FFF732FC4EF63470CEF20000016841F06E
:103CF00040410160FEF7AAFF20684FF0500181F3B8
:103D00001188BFF36F8FBFF34F8F013002D000BF18
:103D1000FEE700BFFEE7000080B54FF0500080F3E3
:103D20001188BFF36F8FBFF34F8F00F07BFD30B171
:103D30004EF60450CEF200004FF08051016000209A
:103D400080F3118880BD0000F0B581B070B10646E7
:103D50000C46814214D94FF0500080F31188BFF314
:103D60006F8FBFF34F8F00BFFEE700BF4FF05000D3
:103D700080F31188BFF36F8FBFF34F8FFEE700BF53
:103D80005020FFF75DF9054620B300272D60C5E9F7
:103D90000F67FFF7E3FB2868D5E90F12AF6302FB5B
:103DA0000103013901FB0201C5E90130FF20E9608F
:103DB00085F8440085F8450005F11000FFF774FB15
:103DC00005F12400FFF770FBFFF7ECFB022085F8FC
:103DD0004C00AC63284601B0F0BD000070B505464C
:103DE0005020FFF72DF9044660B30120002624601F
:103DF000C4E90F06FFF7B2FB2068D4E90F12A663EF
:103E000002FB0103013901FB0201C4E90130FF207B
:103E1000E16084F8440084F8450004F11000FFF7E5
:103E200043FB04F12400FFF73FFBFFF7BBFB2046F9
:103E300000210022002384F84C50C4E90066E660AB
:103E400000F048F9204670BDF0B581B0B0B3064629
:103E50004843503014460F46002908BF5020FFF752
:103E6000EFF8054630B32846002F18BF50302860C1
:103E7000C5E90F67FFF772FB2868D5E90F12002725
:103E800002FB0103013901FB0201AF63C5E9013007
:103E9000FF20E96085F8440085F8450005F1100031
:103EA000FFF702FB05F12400FFF7FEFAFFF77AFBAC
:103EB00085F84C40284601B0F0BD00BF4FF05000DF
:103EC00080F31188BFF36F8FBFF34F8FFEE70000C1
:103ED0002DE9F04F85B00492A0B1984617460E46E2
:103EE000044600294AD000F087FCA8B9A7B14FF0DA
:103EF000500080F31188BFF36F8FBFF34F8F00BF67
:103F0000FEE700BF4FF0500080F31188BFF36F8FC2
:103F1000BFF34F8FFEE700BFFFF720FBD4F838B0A8
:103F2000BBF1000F38D0226CE7684AB16068B9185D
:103F3000E160814224BF2168E1603046FCF7AEFBBE
:103F4000B8F1000F00F0968054F8240F002844F8D0
:103F5000187C00F0A980204600F044FD002800F005
:103F6000A3804EF60450CEF200004FF08051016065
:103F7000BFF34F8FBFF36F8F96E000BF206C002818
:103F8000B1D04FF0500080F31188BFF36F8FBFF3B3
:103F90004F8F00BFFEE700BF04F124000190012015
:103FA00002AF4FF0000A0DF110092DE0FFF7FAFA09
:103FB000FFF7BEFDFFF7D2FA94F84400FF2808BFD0
:103FC00084F844A094F84500FF2808BF84F845A071
:103FD000FFF7E8FA3846494600F0A2FAF0B1204669
:103FE000FEF7F4FF00F038FDFFF7B8FAA56BFFF716
:103FF000D9FA002D68D0FFF7B1FAD4F838B0002014
:10400000BBF1000F7FF48FAF0499002954D0C00793
:10401000CCD03846FFF738FDC8E700BFFFF79EFA5F
:10402000A56BFFF7BFFA2DB12046FEF7CFFF00F0DA
:1040300013FDE0E7206830B9FFF790FA6068FFF7FA
:10404000D9FCFFF7AFFA04990198FFF76FFC2046FF
:10405000FEF7BCFF00F000FD0028CCD14EF6045066
:10406000CEF200004FF080510160BFF34F8FBFF3DD
:104070006F8FC0E7ABF10100A063206810B9FFF7B4
:10408000E1F8606054F8100F70B1204600F0AAFC0F
:1040900050B14EF60450CEF200004FF08051016056
:1040A000BFF34F8FBFF36F8F0124FFF77BFA2046DA
:1040B00005B0BDE8F08F00BF0024FFF773FA20467B
:1040C00005B0BDE8F08F00BF0024204605B0BDE874
:1040D000F08F00002DE9F04F83B00292C0B11D4671
:1040E00017460E460446E9B1022D03D1E06B0128C4
:1040F00040F0888000F080FB10BB0FB34FF0500001
:1041000080F31188BFF36F8FBFF34F8FFEE700BFBF
:104110004FF0500080F31188BFF36F8FBFF34F8FC4
:10412000FEE700BF206C0028DED04FF0500080F387
:104130001188BFF36F8FBFF34F8F00BFFEE700BF43
:10414000FFF70CFAA06B022D66D0E16B884263D3B7
:1041500004F1100801206F460DF108090DE000BFC1
:104160002046FEF733FF00F077FCFFF7F7F9A06B6E
:10417000E16B88424FF000004ED30299002973D0C2
:10418000C00702D03846FFF77FFCFFF70BFAFFF7B6
:10419000CFFCFFF7E3F994F84400FF2804BF0020A8
:1041A00084F8440094F84500FF2804BF002084F8F8
:1041B0004500FFF7F7F93846494600F0B1F9002805
:1041C00058D1FFF7CBF9D4F838A0D4F83CB0FFF7BA
:1041D000E9F9DA45C4D102994046FFF7A7FB20462A
:1041E000FEF7F4FE00F038FC0028BED14EF6045075
:1041F000CEF200004FF080510160BFF34F8FBFF34C
:104200006F8FB2E74FF0500080F31188BFF36F8FCC
:10421000BFF34F8FFEE700BFA76B226CD2B19DB3F7
:10422000E0683146FCF73AFAE168206C2268091A26
:104230009142E16003D2616840420844E060A81EF8
:10424000B0FA80F040093946002F18BF012108401C
:104250003F1A26E02068002520BB606800F066FB5E
:10426000656005461EE000BFFFF79CF9002003B023
:10427000BDE8F08F2046FEF7A9FE00F0EDFB002020
:1042800003B0BDE8F08F00BFA0683146FCF706FA26
:10429000216CD4E9012008449042A06001D3206839
:1042A000A060002554F8240F791C6161A0B120465C
:1042B00000F098FB50B14EF60450CEF200004FF0E3
:1042C00080510160BFF34F8FBFF36F8FFFF76AF923
:1042D000012003B0BDE8F08F002DF7D04EF604505A
:1042E000CEF200004FF080510160BFF34F8FBFF35B
:1042F0006F8FFFF757F9012003B0BDE8F08F000082
:104300002DE9F04700B31E46144605460F4629B373
:10431000022E02D1E86B012852D1FFF7DBF9EFF34F
:1043200011884FF0500080F31188BFF36F8FBFF3F7
:104330004F8FA86B022E1FD0E96B88421CD3002040
:1043400088F31188BDE8F0874FF0500080F31188A2
:10435000BFF36F8FBFF34F8FFEE700BF286C0028BD
:10436000D6D04FF0500080F31188BFF36F8FBFF3AA
:104370004F8F00BFFEE700BF95F84590D5F838A0F5
:104380002A6C3AB376B3E8683946FCF787F9E968EE
:10439000286C2A68091A9142E96003D26968404290
:1043A0000844E860B01EB0FA80F040095146BAF106
:1043B000000F18BF01210840AAEB000A1FE000BF50
:1043C0004FF0500080F31188BFF36F8FBFF34F8F12
:1043D000FEE700BF286890B9686800F0A7FA0020DF
:1043E00068600CE0A8683946FCF758F9296CD5E9F3
:1043F000012008449042A86001D32868A8600AF10F
:104400000100B9F1FF0FA86310D155F8240FB8B11E
:10441000284600F0E7FA0146002C4FF0010018BFD3
:10442000002913D188F31188BDE8F08709F1010054
:1044300085F84500012088F31188BDE8F08700BFAA
:10444000012088F31188BDE8F08700BF01202060BB
:1044500088F31188BDE8F08770B568B10546006C37
:10446000A0B14FF0500080F31188BFF36F8FBFF3FE
:104470004F8F00BFFEE700BF4FF0500080F3118860
:10448000BFF36F8FBFF34F8FFEE700BF28680C4666
:1044900060B3FFF71FF9EFF311864FF0500080F380
:1044A0001188BFF36F8FBFF34F8FA96BE86B814209
:1044B00018D295F845000131FF28A96324D155F899
:1044C000240F48B3284600F08DFA0146002C4FF027
:1044D000010018BF00291BD00120206086F311883D
:1044E00070BD00BF002086F3118870BD6868002889
:1044F000CFD04FF0500080F31188BFF36F8FBFF320
:104500004F8F00BFFEE700BF013085F84500012056
:1045100086F3118870BD00BF012086F3118870BD3D
:10452000B0B538B30D4679B30446FFF717F840F23B
:10453000B80CC2F2000CDCF81C2029684B1C33D0EC
:10454000DCF83800D4E9003E984201D0724525D20B
:10455000A2EB0E02914221D9881A2860DCF83800BB
:104560002060DCF81C0060600024FFF71BF8204688
:10457000B0BD00BF4FF0500080F31188BFF36F8FC4
:10458000BFF34F8FFEE700BF4FF0500080F311885C
:10459000BFF36F8FBFF34F8FFEE700BF0124FFF71C
:1045A00001F82046B0BD00BF0024FEF7FBFF204607
:1045B000B0BD00002DE9F04F81B09700824638462B
:1045C000994615468B46FEF73BFD002800F09A8081
:1045D00006465820FEF734FD002800F09980044676
:1045E000DDF82880066330463946A522FCF79BF8A3
:1045F0009BF80010206B84F8341000EB85009BF8CA
:104600000010043820F00705E1B39BF8010084F89E
:1046100035009BF80100A8B39BF8020084F836002F
:104620009BF8020070B39BF8030084F837009BF8F6
:10463000030038B39BF8040084F838009BF80400AA
:1046400000B39BF8050084F839009BF80500C8B159
:104650009BF8060084F83A009BF8060090B19BF89E
:10466000070084F83B009BF8070058B19BF808004E
:1046700084F83C009BF8080000281CBF9BF8090048
:1046800084F83D00261D0027304684F83D70B8F1BF
:10469000040F28BF4FF00408C4F82C80C4E9128727
:1046A000FEF70EFF04F11800FEF70AFFC8F105003F
:1046B000A061284651464A4624616462276584F811
:1046C0005470FEF7CBFD0B992060002918BF0C60D9
:1046D000FEF744FF40F2B805C2F20005286940F237
:1046E0008429013028612868C2F20009D0B16869C4
:1046F000002849D12868E16AC06A884298BF2C60C6
:1047000042E000BF4FF0FF37384601B0BDE8F08F00
:104710003046FEF75FFF4FF0FF37384601B0BDE887
:10472000F08F00BF2C60286901282DD14846FEF784
:10473000BBFE09F11400FEF7B7FE09F12800FEF7F1
:10474000B3FE09F13C00FEF7AFFE09F15000FEF7A1
:10475000ABFE40F26C18C2F200084046FEF7A4FE21
:1047600008F114073846FEF79FFE05F16400FEF7D6
:104770009BFE05F13C00FEF797FE05F15000FEF7A9
:1047800093FEC5F820806F626868A968012701312F
:10479000A9602164E16A07FA01F21043686001EB45
:1047A000810009EB80003146FEF7C0FEFEF7FAFEFD
:1047B00068690028A8D02868E16AC06A88420FD2D8
:1047C0004EF60450CEF200004FF0805101270160F8
:1047D000BFF34F8FBFF36F8F384601B0BDE8F08F46
:1047E0000127384601B0BDE8F08F000040F2B80064
:1047F000C2F200000068704740F2B800C2F2000048
:10480000416900290FBF01208069B0FA80F040099A
:1048100018BF40007047000040F2B800C2F200002C
:10482000C06970472DE9F04740F2B806C2F20006B1
:10483000B06928B1706B0024013070636EE000BF76
:10484000F06910F1010AC6F81CA020D3306A006894
:1048500050B14FF0500080F31188BFF36F8FBFF35A
:104860004F8F00BFFEE700BF306A716A316270622D
:10487000B06B0130B063306A006828B1306AC0683C
:10488000C068406802E000BF4FF0FF30F062F06A9D
:1048900040F284288245C2F2000801D2002434E0AC
:1048A000306A0024006868B34FF0010916E000BFC9
:1048B000F86A716809FA00F2114300EB8000716038
:1048C00008EB80002946FEF731FEF86A3168C96AB4
:1048D000326A8842106828BF4C4698B1306AC06876
:1048E000C7683D4655F8040F82450DD32846FEF7AC
:1048F000C9FDB86A0028DBD007F11800FEF7C2FD39
:10490000D6E700BF4FF0FF30F0623068C06A00EBBE
:10491000800058F82000012888BF0124306B00284F
:1049200018BF01242046BDE8F0870000F0B581B033
:1049300090B140F2B807C2F2000704463868A042BE
:104940000ED04FF0500080F31188BFF36F8FBFF38C
:104950004F8F00BFFEE700BF0026304601B0F0BD1C
:10496000E06CA8B3E16AA26C013891424FF00006F6
:10497000E064F2D00028F0D1251D2846FEF782FD24
:10498000002840F28420C2F200000CD1E16A01EB61
:10499000810250F8222032B901227B6802FA01F12B
:1049A00023EA01017960A16C0126C1F10502E162EF
:1049B000A2617A6806FA01F301EB81011A4300EB68
:1049C000810029467A60FEF7B1FD304601B0F0BDA6
:1049D0004FF0500080F31188BFF36F8FBFF34F8FFC
:1049E000FEE7000070B5C068C5686DB105F1180438
:1049F0002046FEF747FD40F2B806C2F20006B06955
:104A000060B106F164001BE04FF0500080F31188A4
:104A1000BFF36F8FBFF34F8FFEE700BF2C1D204603
:104A2000FEF730FDE86A0121726881401143716030
:104A300040F2842100EB8000C2F2000101EB800013
:104A40002146FEF773FDE86A3168C96A884292BF61
:104A500000200120306370BD2DE9F04140F2B8051F
:104A6000C2F20005A86968B1FEF778FDA8690138AF
:104A7000A861A86980B10024FEF794FD2046BDE836
:104A8000F08100BF4FF0500080F31188BFF36F8FAB
:104A9000BFF34F8FFEE700BF28690028EBD0686E98
:104AA00078B340F284280126C2F20008286FC76854
:104AB00007F11800FEF7E6FC3C1D2046FEF7E2FC7D
:104AC000F86A696806FA00F2114300EB8000696039
:104AD00008EB80002146FEF729FDF86A2968C96ABB
:104AE000884228BF2E63686E0028DFD1286A0068DC
:104AF00020B1286AC068C068406801E04FF0FF300C
:104B0000E8626C6B4CB10126FFF78CFE002818BFE1
:104B10002E63013CF8D100206863286B0028AAD0DE
:104B20004EF60450CEF200004FF080510124016097
:104B3000BFF34F8FBFF36F8FFEF734FD2046BDE804
:104B4000F081000070B582B0FEF708FD40F230162B
:104B5000C2F200063068C0B906F114042046FEF720
:104B6000A3FC06F128052846FEF79EFC0A200C212E
:104B70000022C6E90245FFF767F9306028B144F624
:104B8000AA61C0F60001FEF7D5FDFEF70BFD306807
:104B900088B10220009042F695400436C0F600002D
:104BA0000AA14FF4827200230196FFF703FD00284B
:104BB0001CBF02B070BD4FF0500080F31188BFF3EE
:104BC0006F8FBFF34F8F00BFFEE700BF546D7220A1
:104BD0005376630030380A2801D201207047002044
:104BE0007047F1EE100A4FF6FF71C0F2C03120EAB3
:104BF000010040F04070E1EE100A7047303132336E
:104C00003435363738394142434445464030580000
:104C10003031323334353637383961626364656632
:104C2000403078000400000800000000000000028E
:104C3000000100001000000000000000000102035D
:104C40000406070809000000000102030455415250
:104C5000545F53454E445F5461736B5F48616E64AB
:104C60006C6520E5889BE5BBBAE5A4B1E8B4A5EF87
:104C7000BC810D00554152545F524543454956454C
:104C80005F5461736B5F48616E646C6520E5889B5F
:104C9000E5BBBAE5A4B1E8B4A5EFBC810D00436F54
:104CA000756E7453656D5F48616E646C6520E8AE27
:104CB000A1E695B0E4BFA1E58FB7E9878FE5889BB2
:104CC000E5BBBAE5A4B1E8B4A5EFBC810D00556120
:104CD00072745F52785F526571756573745F517558
:104CE00065756520E6B688E681AFE9989FE5889707
:104CF000E5889BE5BBBAE5A4B1E8B4A5EFBC810D9E
:104D000000556172745F54785F5265717565737494
:104D10005F517565756520E6B688E681AFE9989FB5
:104D2000E58897E5889BE5BBBAE5A4B1E8B4A5EFB3
:104D3000BC810D00756172745F72785F7468726512
:104D4000616400765461736B5561727452780076B9
:104D50005461736B556172745478004D7578536566
:104D60006D5F48616E646C6520E4BA92E696A5E9D1
:104D7000878FE5889BE5BBBAE5A4B1E8B4A5EFBC95
:104D800081000A2A2A2A2048415244204641554C93
:104D900054204445544543544544202A2A2A0A3D78
:104DA0003D3D205361766564205265676973746583
:104DB0007273203D3D3D0A52303A20203078253034
:104DC00038582020202052313A20203078253038A1
:104DD000580A52323A202030782530385820202086
:104DE0002052333A20203078253038580A52313258
:104DF0003A20307825303858202020204C523A2054
:104E0000203078253038580A50433A202030782511
:104E1000303858202020205053523A203078253006
:104E200038580A3D3D3D204661756C7420537461CD
:104E3000747573203D3D3D0A434653523A20307805
:104E40002530385820202020484653523A203078C8
:104E5000253038580A4D4D4641523A307825303881
:104E60005820202020424641523A203078253038C0
:104E7000580A444653523A2030782530385820207A
:104E80002020414653523A203078253038580A2A9B
:104E90002A2A2A2A2A2A2A2A2A2A2A2A2A2A2A2A72
:104EA0002A2A2A2A2A2A2A2A0A00546D7251000024
:104EB000D04E00080000002010000000C4010008CF
:104EC000E04E00081000002020470100E00100082B
:104ED00001000000100000000024F400AAAAAAAA01
:040000050800018965
:00000001FF
